:100000000C94A1000C94BE000C94BE000C94BE0095
:100010000C94BE000C94BE000C94BE000C94BE0068
:100020000C94BE000C94BE000C94BE000C94C6054B
:100030000C94BE000C94BE000C94BE000C94BE0048
:100040000C94BE000C94BE000C94BE000C94BE0038
:100050000C94BE000C94BE000C94BE000C94BE0028
:100060000C94BE000C94BE000C94BE000C94BE0018
:100070000C94BE0020024202300342023003870289
:10008000AA023003FF02120326034C00550046006B
:10009000410020004B006500790062006F006100A4
:1000A000720064002000440065006D006F000000D5
:1000B00018034400650061006E00200043006100E9
:1000C0006D0065007200610000000403090409026C
:1000D0002200010100C032090400000103010100F7
:1000E000092111010001223F0007058103080005D5
:1000F0001201100100000008EB0342200100010280
:10010000000105010906A101050719E029E715000D
:100110002501750195088102950175088101050881
:100120001901290595057501910295017503910144
:10013000150025FF0507190029FF950675088100A0
:10014000C00011241FBECFEFD2E0DEBFCDBF11E053
:10015000A0E0B1E0EEE5F1E102C005900D92A23120
:10016000B107D9F721E0A2E1B1E001C01D92AD34A1
:10017000B207E1F70E9459010C94AD080C940000FD
:10018000292F332723303105E1F05CF4213031058C
:1001900099F02230310579F582E290E02EEC30E0E2
:1001A0002EC02132310511F12232310521F58FE3C4
:1001B00090E022E031E023C082E190E020EF30E0E7
:1001C0001EC099278130910541F08230910541F0A0
:1001D000892B89F4EAECF0E005C0E0EBF0E002C026
:1001E000E8E8F0E0849190E09F0109C089E090E0A8
:1001F00020EE30E004C080E090E020E030E0FA0142
:10020000318320830895ECE1F1E0108211821282A3
:10021000138214821582168217821086118683EE4D
:10022000828735E133871486158686E186878BE0E1
:10023000878788E1808B97E1918B87E0828B82E1D1
:10024000838B8AE1848B81E1858B8CE2868B26E52A
:10025000278B308F818F228F938F848F83E2858FBE
:1002600087E2868F178E10A288E281A312A283A351
:1002700084E290E0909311018093100108958FEF34
:1002800084B98AB98BB985B984B7877F84BF0FB623
:10029000F894A89580916000886180936000109226
:1002A00060000FBEE1E6F0E080E8808310820C94ED
:1002B000B6050E9403010E943F01789480E091E01E
:1002C0000E94C3070E944903F9CF8FEF8BB90895AD
:1002D000089580E091E00E94AF079091E200946061
:1002E0009093E20081111BB8089580E091E00C9496
:1002F0006E0680910E0190910F01009729F00197F1
:1003000090930F0180930E0108950F931F93F901AD
:1003100080911201909113012091100130911101EF
:10032000821793070CF057C0DC01A45EBE4F8C917E
:10033000811113C02FEF80E792E021508040904060
:10034000E1F700C000008091120190911301019625
:10035000909313018093120135C0833E29F58FE0FD
:1003600097E20197F1F700C000008091120190918F
:1003700013019C012F5F3F4F309313012093120113
:10038000DC01A45EBE4F8C9182838FE097E20197DF
:10039000F1F700C00000A0911201B0911301A45E1A
:1003A000BE4F8C9183830EC08FE097E20197F1F7E7
:1003B00000C00000A0911201B0911301A45EBE4FD5
:1003C0008C918283809112019091130101969093F8
:1003D00013018093120188E090E0F80191838083FB
:1003E00081E01F910F9108951BB815B808951F93D0
:1003F000CF93DF93CDB7DEB7AA970FB6F894DEBFE1
:100400000FBECDBFE5E4F1E088E08E0F9091F100E2
:1004100091938E13FBCF0E9475018091E80083FFBA
:100420001FC18091450190914601492F50E04A300B
:10043000510508F015C1FA01E65CFF4F0C948A08DB
:10044000803881F0823809F00BC1809149018F70AA
:100450008093E9008091EB0085FB882780F910925A
:10046000E90006C0809141019091420191118260A2
:100470009091E800977F9093E8008093F1001092AC
:10048000F100C8C0282F2D7F09F0EAC0882319F099
:10049000823061F0E5C080914701813009F0E0C011
:1004A000933009F080E0809342012BC08091470196
:1004B000811127C0809149018F7009F4D1C08093C8
:1004C000E9002091EB0020FF1CC0933021F48091C3
:1004D000EB00806214C09091EB0090619093EB0070
:1004E00021E030E0A90102C0440F551F8A95E2F7D0
:1004F0004093EA001092EA008091EB0088608093BC
:10050000EB001092E9008091E800877F86C081119E
:10051000A7C0109147011F778091E3008078812B5D
:100520008093E3008091E800877F8093E8000E9439
:100530002A058091E80080FFFCCF8091E30080686D
:100540008093E300111102C082E001C083E0809338
:10055000440186C08058823008F082C080914701F3
:10056000909148018C3D53E0950779F583E08A83AB
:100570008AE289834FB7F894DE01139620E03EE0CB
:1005800051E2E32FF0E050935700E49120FF03C0C5
:10059000E295EF703F5FEF708E2F90E0EA3010F041
:1005A000C79601C0C0968D939D932F5F243149F764
:1005B0004FBF8091E800877F8093E8006AE270E097
:1005C000CE0101960E94B10314C0AE014F5F5F4F90
:1005D000609149010E94C000BC01892B09F440C010
:1005E0009091E800977F9093E80089819A810E941A
:1005F0004D048091E8008B778093E80031C080380B
:1006000079F58091E800877F8093E8008091400130
:100610008093F1008091E8008E778093E8000E943B
:100620002A051EC081111CC0909147019230C0F470
:100630008091E800877F8093E800909340010E94BA
:100640002A0580914001811106C08091E30087FD59
:1006500002C081E001C084E0809344010E946901EE
:100660008091E80083FF0AC08091E800877F809333
:10067000E8008091EB0080628093EB00AA960FB6B1
:10068000F894DEBF0FBECDBFDF91CF911F910895CB
:100690000895CF93809144018823A1F0C091E9008F
:1006A000CF709091EC00892F817090FD80E8C82B6D
:1006B0001092E9008091E80083FD0E94F701CF705D
:1006C000C093E900CF910895CF92DF92EF92FF920D
:1006D0000F931F93CF93DF93EC018B017A010E945C
:1006E0004905811135C0E114F10439F0F701808129
:1006F0009181081B190BC80FD91FC12CD12C0115D2
:10070000110529F18091E80085FD18C08091E8006D
:100710008E778093E8000E944903E114F10449F0C8
:10072000F70180819181C80ED91ED182C08285E0F7
:100730000FC00E944905882311F30AC08991809354
:10074000F10001501109FFEFCF1ADF0AD8CF80E086
:10075000DF91CF911F910F91FF90EF90DF90CF909D
:10076000089520914B0130914C012617370748F02E
:100770006115710539F42091E8002E772093E80087
:1007800001C0B90140E06115710591F1209144016A
:10079000222309F440C0253009F43FC02091E8002D
:1007A00023FD3DC02091E80022FD2FC02091E800EC
:1007B00020FFE9CF2091F20030E0FC01CF0161156C
:1007C000710559F02830310540F481918093F10092
:1007D000615071092F5F3F4FF1CF41E02830310563
:1007E00009F040E02091E8002E772093E800CBCF7D
:1007F0004111CCCF0AC080914401882361F085303B
:1008000061F08091E80083FD0AC08091E80082FFDA
:10081000F2CF80E0089582E0089583E0089581E0BA
:1008200008956115710529F42091E8002B77209334
:10083000E800FC016115710521F1809144018823D4
:1008400041F1853041F18091E80083FD20C0809125
:10085000E80082FFEFCF8091F200882331F0809191
:10086000F100819361507109B1F78091E8008B77B5
:100870008093E800DFCF80914401882351F08530D8
:1008800051F08091E80080FFF6CF80E0089581E08C
:10089000089582E0089583E0089520914B013091FE
:1008A0004C012617370748F06115710539F420917E
:1008B000E8002E772093E80001C0B901FC0120E098
:1008C0006115710579F180914401882309F43DC0D7
:1008D000853009F43CC08091E80083FD3AC08091E6
:1008E000E80082FD2CC08091E80080FFE9CF809174
:1008F000F20090E06115710559F08830910540F4DF
:1009000024912093F1003196615071090196F2CF44
:1009100021E0089709F020E08091E8008E7780932D
:10092000E800CECF2111CFCF0AC0809144018823A7
:1009300061F0853061F08091E80083FD0AC080910C
:10094000E80082FFF2CF80E0089582E0089583E01E
:10095000089581E00895982F953058F59093E90017
:10096000981739F07091EC002091ED005091F00053
:1009700003C0242F762F50E021FF19C03091EB00E7
:100980003E7F3093EB003091ED003D7F3093ED00E2
:100990003091EB0031603093EB007093EC002093CA
:1009A000ED005093F0002091EE0027FF07C09F5FFD
:1009B000D3CF8F708093E90081E0089580E008959F
:1009C000EF92FF920F931F93CF93DF93E62EEC01EC
:1009D0008C010C5F1F4FF12CFE14A1F1988199231B
:1009E00061F1F801208169817A8131973081892F05
:1009F0008F70853010F080E026C0223010F442E085
:100A000001C046E0E8E0F0E020E0E617F70720F458
:100A10002F5FEE0FFF1FF9CF2295207F422B232F50
:100A20002295220F220F207C991F9927991F622F50
:100A3000692B0E94AB048823F1F2F39425960B5F97
:100A40001F4FCACF81E0DF91CF911F910F91FF908F
:100A5000EF9008958091450187FF11C08091E800D3
:100A600082FD05C0809144018111F8CF11C08091B1
:100A7000E8008B770BC080914401882349F0809176
:100A8000E80080FFF8CF8091E8008E778093E8003F
:100A900008952091E4003091E50095E64091EC0046
:100AA000842F817040FF22C08091E80080FD1CC02F
:100AB00080914401882391F0853091F08091EB0082
:100AC00085FD10C04091E4005091E50042175307A6
:100AD00029F39A01915011F784E0089582E0089576
:100AE00083E0089581E0089580E008954091E80052
:100AF00042FFDECF08950E94C0050E94C305809189
:100B0000D8008F778093D8008091D8008068809338
:100B1000D8008091D8008F7D8093D80019BC82E0E6
:100B200089BD09B400FEFDCF10924401109240012E
:100B3000109242011092410142E060E080E00E9488
:100B4000AB048091E1008E7F8093E1008091E20010
:100B500081608093E2008091E20088608093E200EF
:100B60008091E0008E7F8093E0000895E3E6F0E05E
:100B700080818E7F808381E0809343010C947B058C
:100B80001092E20008951092E10008951F920F92D2
:100B90000FB60F9211242F933F934F935F936F9350
:100BA0007F938F939F93AF93BF93EF93FF93809126
:100BB000E10082FF0BC08091E20082FF07C08091BC
:100BC000E1008B7F8093E1000E9479018091E10038
:100BD00080FF18C08091E20080FF14C08091E20085
:100BE0008E7F8093E2008091E20080618093E2003A
:100BF0008091D80080628093D80019BC1092440183
:100C00000E9468018091E10084FF2FC08091E20082
:100C100084FF2BC019BC82E089BD09B400FEFDCF62
:100C20008091D8008F7D8093D8008091E1008F7EE5
:100C30008093E1008091E2008F7E8093E2008091BA
:100C4000E20081608093E20080914001882311F0EE
:100C500084E007C08091E30087FD02C081E001C00D
:100C600083E0809344010E9465018091E10083FF4D
:100C700024C08091E20083FF20C08091E100877F43
:100C80008093E10082E080934401109240018091C2
:100C9000E1008E7F8093E1008091E2008E7F80935F
:100CA000E2008091E20080618093E20042E060E037
:100CB00080E00E94AB040E944803FF91EF91BF9136
:100CC000AF919F918F917F916F915F914F913F91E4
:100CD0002F910F900FBE0F901F9018956F927F92DB
:100CE0008F929F92AF92BF92CF92DF92EF92FF923C
:100CF0000F931F93CF93DF9300D01F92CDB7DEB732
:100D00007C01CDB6DEB68091E80083FF11C1F7010A
:100D1000808190E02091490130914A0128173907DC
:100D200009F006C180914601833009F4A5C030F472
:100D3000813071F0823009F4DEC0FAC08A3009F4E3
:100D4000C1C08B3009F4A9C0893009F0F1C055C089
:100D500080914501813A09F0EBC08DB69EB61A82AA
:100D6000198280914701109148018B83F70180859A
:100D7000482F50E08DB79EB7841B950B0FB6F894A3
:100D80009EBF0FBE8DBFEDB7FEB731965F0160E02D
:100D900070E0CF010E94A6084FEF410F8E010F5F58
:100DA0001F4F9501BE016D5F7F4FC7010E948501F6
:100DB000F70186819781009729F0408550E0B501C1
:100DC0000E949D081092E9008091E800877F80933F
:100DD000E8008B8181118093F10069817A81C501DE
:100DE0000E94B1038091E8008B778093E8000FB6F2
:100DF000F8949EBE0FBE8DBE9BC08091450181328E
:100E000009F096C0ADB6BEB600914B0110914C01F1
:100E100070904701609048018DB79EB7801B910B81
:100E20000FB6F8949EBF0FBE8DBFEDB7FEB73196DB
:100E30004F018091E800877F8093E800B801CF01DF
:100E40000E9411048091E8008E778093E80021E0F1
:100E5000711001C020E030E0021B130B280D391D7A
:100E60004FEF460D672DC7010E94F4010FB6F894AD
:100E7000BEBE0FBEADBE5CC080914501813A09F097
:100E800057C08091E800877F8093E8008091E80058
:100E900080FFFCCFF701818542C0809145018132FE
:100EA00009F046C08091E800877F8093E8000E94A7
:100EB0002A059091470181E0911101C080E0F7017E
:100EC000818736C080914501813291F58091E8009B
:100ED000877F8093E8000E942A05809147019091C6
:100EE0004801882736E0969587953A95E1F7F7010E
:100EF000958784871DC080914501813AC9F480910E
:100F0000E800877F8093E8008091E80080FFFCCFB5
:100F1000F701848595859695879596958795809315
:100F2000F1008091E8008E778093E8000E942A0506
:100F30000FB6F894DEBE0FBECDBE0F900F900F908F
:100F4000DF91CF911F910F91FF90EF90DF90CF90A5
:100F5000BF90AF909F908F907F906F900895FC010D
:100F6000399627E0DF011D922A95E9F721E0FC017F
:100F7000218724EF31E03587248723E0248361E053
:100F800001960C94E0044F925F926F927F928F9241
:100F90009F92AF92BF92CF92DF92EF92FF920F9308
:100FA0001F93CF93DF9300D01F92CDB7DEB77C01A4
:100FB000ADB6BEB680914401843009F092C08091F4
:100FC000E4009091E500F701228533852817390761
:100FD00009F487C081818F708093E9008091E800D7
:100FE00085FF7FC08DB69EB6408550E08DB79EB719
:100FF000841B950B0FB6F8949EBF0FBE8DBFEDB747
:10100000FEB731966F011B821A82198260E070E090
:10101000CF010E94A6088E010F5F1F4F960140E08E
:10102000BE016D5F7F4FC7010E948501482EF70109
:1010300084859585892B51F091E080E02685378560
:10104000232B09F090E0092F182F02C000E010E0D8
:10105000F701668077806114710499F049815A81A3
:10106000B301C6010E94900855245394892B09F4BA
:10107000512CF701408550E0B601C3010E949D0844
:1010800001C0512C89819A81892BF9F0411004C04B
:10109000511002C0012BC9F0F7018485958597870F
:1010A000868781818F708093E9008B818111809385
:1010B000F10069817A8140E050E0C6010E9464033A
:1010C0008091E8008E778093E8008091E400909111
:1010D000E500F701938782870FB6F8949EBE0FBE96
:1010E0008DBE0FB6F894BEBE0FBEADBE0F900F9072
:1010F0000F90DF91CF911F910F91FF90EF90DF90B4
:10110000CF90BF90AF909F908F907F906F905F90A7
:101110004F900895EE0FFF1F0590F491E02D099474
:10112000FB01DC0104C08D910190801921F4415034
:101130005040C8F7881B990B0895FB01DC0102C0E1
:1011400001900D9241505040D8F70895DC0101C044
:0E1150006D9341505040E0F70895F894FFCFA2
:10115E0000810800000114010800000000000000DA
:02116E0001007E
:00000001FF
